{
  "contractName": "Donation",
  "abi": [
    {
      "constant": true,
      "inputs": [
        {
          "name": "",
          "type": "address"
        }
      ],
      "name": "donorm",
      "outputs": [
        {
          "name": "id",
          "type": "uint256"
        },
        {
          "name": "donoraddr",
          "type": "address"
        },
        {
          "name": "name",
          "type": "string"
        },
        {
          "name": "amountDonated",
          "type": "uint256"
        },
        {
          "name": "transfered",
          "type": "bool"
        },
        {
          "name": "balance",
          "type": "uint256"
        }
      ],
      "payable": false,
      "stateMutability": "view",
      "type": "function",
      "signature": "0x05439898"
    },
    {
      "constant": true,
      "inputs": [
        {
          "name": "",
          "type": "address"
        }
      ],
      "name": "balances",
      "outputs": [
        {
          "name": "",
          "type": "uint256"
        }
      ],
      "payable": false,
      "stateMutability": "view",
      "type": "function",
      "signature": "0x27e235e3"
    },
    {
      "constant": true,
      "inputs": [
        {
          "name": "",
          "type": "address"
        }
      ],
      "name": "charitym",
      "outputs": [
        {
          "name": "id",
          "type": "uint256"
        },
        {
          "name": "charityaddr",
          "type": "address"
        },
        {
          "name": "name",
          "type": "string"
        },
        {
          "name": "date",
          "type": "string"
        },
        {
          "name": "amountReceived",
          "type": "uint256"
        },
        {
          "name": "description",
          "type": "string"
        },
        {
          "name": "balance",
          "type": "uint256"
        }
      ],
      "payable": false,
      "stateMutability": "view",
      "type": "function",
      "signature": "0x3833b130"
    },
    {
      "constant": true,
      "inputs": [
        {
          "name": "",
          "type": "uint256"
        }
      ],
      "name": "donors",
      "outputs": [
        {
          "name": "id",
          "type": "uint256"
        },
        {
          "name": "donoraddr",
          "type": "address"
        },
        {
          "name": "name",
          "type": "string"
        },
        {
          "name": "amountDonated",
          "type": "uint256"
        },
        {
          "name": "transfered",
          "type": "bool"
        },
        {
          "name": "balance",
          "type": "uint256"
        }
      ],
      "payable": false,
      "stateMutability": "view",
      "type": "function",
      "signature": "0x4abfa163"
    },
    {
      "constant": true,
      "inputs": [],
      "name": "charityCount",
      "outputs": [
        {
          "name": "",
          "type": "uint256"
        }
      ],
      "payable": false,
      "stateMutability": "view",
      "type": "function",
      "signature": "0x91329493"
    },
    {
      "constant": true,
      "inputs": [],
      "name": "donorsCount",
      "outputs": [
        {
          "name": "",
          "type": "uint256"
        }
      ],
      "payable": false,
      "stateMutability": "view",
      "type": "function",
      "signature": "0x9ff534dc"
    },
    {
      "constant": true,
      "inputs": [
        {
          "name": "",
          "type": "uint256"
        }
      ],
      "name": "charities",
      "outputs": [
        {
          "name": "id",
          "type": "uint256"
        },
        {
          "name": "charityaddr",
          "type": "address"
        },
        {
          "name": "name",
          "type": "string"
        },
        {
          "name": "date",
          "type": "string"
        },
        {
          "name": "amountReceived",
          "type": "uint256"
        },
        {
          "name": "description",
          "type": "string"
        },
        {
          "name": "balance",
          "type": "uint256"
        }
      ],
      "payable": false,
      "stateMutability": "view",
      "type": "function",
      "signature": "0xfb709d2e"
    },
    {
      "inputs": [],
      "payable": false,
      "stateMutability": "nonpayable",
      "type": "constructor",
      "signature": "constructor"
    },
    {
      "anonymous": false,
      "inputs": [],
      "name": "getCharitiesEv",
      "type": "event",
      "signature": "0x76353e71b17e68510068f962ae0c11972dcd4c593855073ea86771c0a1ab536a"
    },
    {
      "anonymous": false,
      "inputs": [
        {
          "indexed": false,
          "name": "id",
          "type": "uint256"
        }
      ],
      "name": "getCharityEv",
      "type": "event",
      "signature": "0x452aeea4930683ed5f82a3b1c6b6cb32f7cce575feaab36aa99df988f7b5feba"
    },
    {
      "anonymous": false,
      "inputs": [
        {
          "indexed": false,
          "name": "name",
          "type": "string"
        },
        {
          "indexed": false,
          "name": "description",
          "type": "string"
        },
        {
          "indexed": false,
          "name": "amountReceived",
          "type": "uint256"
        },
        {
          "indexed": false,
          "name": "date",
          "type": "string"
        },
        {
          "indexed": false,
          "name": "history",
          "type": "string[]"
        }
      ],
      "name": "addCharityEv",
      "type": "event",
      "signature": "0x46b01024b7717ef5be171b6451aeef55b0385c01fc2e2dd4b11c883b06858c2d"
    },
    {
      "anonymous": false,
      "inputs": [],
      "name": "getDonorsEv",
      "type": "event",
      "signature": "0xa44d1b7ef69925cb76ec2a7424f4a5cb5f24c50021763da23b370f88ba0614a1"
    },
    {
      "anonymous": false,
      "inputs": [
        {
          "indexed": false,
          "name": "id",
          "type": "uint256"
        }
      ],
      "name": "getDonorEv",
      "type": "event",
      "signature": "0x10d3cb8cc508fb0545cbef1bb00df2ca056f793e8da6701790cfc8e7172f4d80"
    },
    {
      "anonymous": false,
      "inputs": [
        {
          "indexed": false,
          "name": "charity_id",
          "type": "uint256"
        },
        {
          "indexed": false,
          "name": "name",
          "type": "string"
        },
        {
          "indexed": false,
          "name": "amountDonated",
          "type": "uint256"
        },
        {
          "indexed": false,
          "name": "history",
          "type": "string[]"
        },
        {
          "indexed": false,
          "name": "transfered",
          "type": "bool"
        }
      ],
      "name": "addDonorEv",
      "type": "event",
      "signature": "0xe85b4f33503fb0397969144ea67288be9c0cce3f929e5f1aa4465a8e6e511868"
    },
    {
      "anonymous": false,
      "inputs": [
        {
          "indexed": false,
          "name": "fromAddress",
          "type": "address"
        },
        {
          "indexed": false,
          "name": "toAddress",
          "type": "address"
        },
        {
          "indexed": false,
          "name": "amountDonated",
          "type": "uint256"
        }
      ],
      "name": "donateEv",
      "type": "event",
      "signature": "0x8a343dbdf7f5b6bc3f4078205c4f074c9645682b77d3322dd4084cbc0f943bab"
    },
    {
      "anonymous": false,
      "inputs": [
        {
          "indexed": false,
          "name": "charityaddr",
          "type": "address"
        },
        {
          "indexed": false,
          "name": "amountReceived",
          "type": "uint256"
        }
      ],
      "name": "depositMade",
      "type": "event",
      "signature": "0x14558f60a55f03caac2b3dabdda0b51b20b0e22ce09a2c28cd1dc18e873578e8"
    },
    {
      "anonymous": false,
      "inputs": [
        {
          "indexed": false,
          "name": "donoraddr",
          "type": "address"
        },
        {
          "indexed": false,
          "name": "amountDonated",
          "type": "uint256"
        }
      ],
      "name": "withdrawalMade",
      "type": "event",
      "signature": "0x1645bc385806bd472276f1f751ecfe0ee20d0ffd7d8ee85761562bdb01e54e6a"
    },
    {
      "constant": false,
      "inputs": [
        {
          "name": "name",
          "type": "string"
        },
        {
          "name": "description",
          "type": "string"
        },
        {
          "name": "date",
          "type": "string"
        }
      ],
      "name": "addCharity",
      "outputs": [],
      "payable": false,
      "stateMutability": "nonpayable",
      "type": "function",
      "signature": "0xf12d85e5"
    },
    {
      "constant": true,
      "inputs": [
        {
          "name": "id",
          "type": "uint256"
        }
      ],
      "name": "getCharity",
      "outputs": [
        {
          "components": [
            {
              "name": "id",
              "type": "uint256"
            },
            {
              "name": "charityaddr",
              "type": "address"
            },
            {
              "name": "name",
              "type": "string"
            },
            {
              "name": "date",
              "type": "string"
            },
            {
              "name": "amountReceived",
              "type": "uint256"
            },
            {
              "name": "description",
              "type": "string"
            },
            {
              "name": "history",
              "type": "string[]"
            },
            {
              "name": "balance",
              "type": "uint256"
            }
          ],
          "name": "",
          "type": "tuple"
        }
      ],
      "payable": false,
      "stateMutability": "view",
      "type": "function",
      "signature": "0xfd67db81"
    },
    {
      "constant": true,
      "inputs": [],
      "name": "getCharities",
      "outputs": [
        {
          "components": [
            {
              "name": "id",
              "type": "uint256"
            },
            {
              "name": "charityaddr",
              "type": "address"
            },
            {
              "name": "name",
              "type": "string"
            },
            {
              "name": "date",
              "type": "string"
            },
            {
              "name": "amountReceived",
              "type": "uint256"
            },
            {
              "name": "description",
              "type": "string"
            },
            {
              "name": "history",
              "type": "string[]"
            },
            {
              "name": "balance",
              "type": "uint256"
            }
          ],
          "name": "",
          "type": "tuple[]"
        }
      ],
      "payable": false,
      "stateMutability": "view",
      "type": "function",
      "signature": "0x48112c6f"
    },
    {
      "constant": true,
      "inputs": [
        {
          "name": "charity_id",
          "type": "uint256"
        }
      ],
      "name": "getCharityBalance",
      "outputs": [
        {
          "name": "",
          "type": "uint256"
        }
      ],
      "payable": false,
      "stateMutability": "view",
      "type": "function",
      "signature": "0xc984ae04"
    },
    {
      "constant": true,
      "inputs": [
        {
          "name": "donor_id",
          "type": "uint256"
        }
      ],
      "name": "getDonorBalance",
      "outputs": [
        {
          "name": "",
          "type": "uint256"
        }
      ],
      "payable": false,
      "stateMutability": "view",
      "type": "function",
      "signature": "0xd0dcd0bb"
    },
    {
      "constant": true,
      "inputs": [],
      "name": "getdonors",
      "outputs": [
        {
          "components": [
            {
              "name": "id",
              "type": "uint256"
            },
            {
              "name": "donoraddr",
              "type": "address"
            },
            {
              "name": "name",
              "type": "string"
            },
            {
              "name": "amountDonated",
              "type": "uint256"
            },
            {
              "name": "history",
              "type": "string[]"
            },
            {
              "name": "transfered",
              "type": "bool"
            },
            {
              "name": "balance",
              "type": "uint256"
            }
          ],
          "name": "",
          "type": "tuple[]"
        }
      ],
      "payable": false,
      "stateMutability": "view",
      "type": "function",
      "signature": "0xe51cea7e"
    },
    {
      "constant": true,
      "inputs": [
        {
          "name": "id",
          "type": "uint256"
        }
      ],
      "name": "getdonor",
      "outputs": [
        {
          "components": [
            {
              "name": "id",
              "type": "uint256"
            },
            {
              "name": "donoraddr",
              "type": "address"
            },
            {
              "name": "name",
              "type": "string"
            },
            {
              "name": "amountDonated",
              "type": "uint256"
            },
            {
              "name": "history",
              "type": "string[]"
            },
            {
              "name": "transfered",
              "type": "bool"
            },
            {
              "name": "balance",
              "type": "uint256"
            }
          ],
          "name": "",
          "type": "tuple"
        }
      ],
      "payable": false,
      "stateMutability": "view",
      "type": "function",
      "signature": "0xf55b6cbf"
    },
    {
      "constant": false,
      "inputs": [
        {
          "name": "charity_id",
          "type": "uint256"
        },
        {
          "name": "donorName",
          "type": "string"
        },
        {
          "name": "amountDonated",
          "type": "uint256"
        }
      ],
      "name": "addDonors",
      "outputs": [],
      "payable": false,
      "stateMutability": "nonpayable",
      "type": "function",
      "signature": "0x8121f54d"
    },
    {
      "constant": false,
      "inputs": [
        {
          "name": "charity_id",
          "type": "uint256"
        },
        {
          "name": "donor_id",
          "type": "uint256"
        },
        {
          "name": "fromAddress",
          "type": "address"
        },
        {
          "name": "toAddress",
          "type": "address"
        },
        {
          "name": "amountDonated",
          "type": "uint256"
        }
      ],
      "name": "donate",
      "outputs": [],
      "payable": true,
      "stateMutability": "payable",
      "type": "function",
      "signature": "0xab46565e"
    },
    {
      "constant": false,
      "inputs": [
        {
          "name": "charityaddr",
          "type": "address"
        },
        {
          "name": "amountReceived",
          "type": "uint256"
        },
        {
          "name": "charity_id",
          "type": "uint256"
        }
      ],
      "name": "deposit",
      "outputs": [
        {
          "name": "",
          "type": "uint256"
        }
      ],
      "payable": false,
      "stateMutability": "nonpayable",
      "type": "function",
      "signature": "0x0efe6a8b"
    },
    {
      "constant": false,
      "inputs": [
        {
          "name": "donoraddr",
          "type": "address"
        },
        {
          "name": "amountDonated",
          "type": "uint256"
        },
        {
          "name": "donor_id",
          "type": "uint256"
        }
      ],
      "name": "withdraw",
      "outputs": [
        {
          "name": "",
          "type": "uint256"
        }
      ],
      "payable": false,
      "stateMutability": "nonpayable",
      "type": "function",
      "signature": "0xb5c5f672"
    }
  ],
  "bytecode": "0x6080604052600080556000600155600a6040519080825280602002602001820160405280156200004457816020015b60608152602001906001900390816200002e5790505b50600490805190602001906200005c92919062000561565b503480156200006a57600080fd5b50620001266040805190810160405280600481526020017f6e616d65000000000000000000000000000000000000000000000000000000008152506040805190810160405280600381526020017f64656300000000000000000000000000000000000000000000000000000000008152506040805190810160405280600481526020017f616d746e000000000000000000000000000000000000000000000000000000008152506200012c640100000000026401000000009004565b620009fc565b60008081548092919060010191905055506060600a6040519080825280602002602001820160405280156200017657816020015b6060815260200190600190039081620001605790505b50905060056101006040519081016040528060005481526020013373ffffffffffffffffffffffffffffffffffffffff168152602001868152602001848152602001600081526020018581526020018381526020016000815250908060018154018082558091505090600182039060005260206000209060080201600090919290919091506000820151816000015560208201518160010160006101000a81548173ffffffffffffffffffffffffffffffffffffffff021916908373ffffffffffffffffffffffffffffffffffffffff16021790555060408201518160020190805190602001906200026a929190620005c8565b50606082015181600301908051906020019062000289929190620005c8565b506080820151816004015560a0820151816005019080519060200190620002b2929190620005c8565b5060c0820151816006019080519060200190620002d19291906200064f565b5060e08201518160070155505050600054600760003373ffffffffffffffffffffffffffffffffffffffff1673ffffffffffffffffffffffffffffffffffffffff1681526020019081526020016000206000018190555083600760003373ffffffffffffffffffffffffffffffffffffffff1673ffffffffffffffffffffffffffffffffffffffff168152602001908152602001600020600201908051906020019062000380929190620006b6565b5081600760003373ffffffffffffffffffffffffffffffffffffffff1673ffffffffffffffffffffffffffffffffffffffff1681526020019081526020016000206003019080519060200190620003d9929190620006b6565b506000600760003373ffffffffffffffffffffffffffffffffffffffff1673ffffffffffffffffffffffffffffffffffffffff1681526020019081526020016000206004018190555082600760003373ffffffffffffffffffffffffffffffffffffffff1673ffffffffffffffffffffffffffffffffffffffff16815260200190815260200160002060050190805190602001906200047a929190620006b6565b5080600760003373ffffffffffffffffffffffffffffffffffffffff1673ffffffffffffffffffffffffffffffffffffffff1681526020019081526020016000206006019080519060200190620004d392919062000561565b506000600660003373ffffffffffffffffffffffffffffffffffffffff1673ffffffffffffffffffffffffffffffffffffffff168152602001908152602001600020819055507f46b01024b7717ef5be171b6451aeef55b0385c01fc2e2dd4b11c883b06858c2d84846000858560405162000553959493929190620008e3565b60405180910390a150505050565b828054828255906000526020600020908101928215620005b5579160200282015b82811115620005b4578251829080519060200190620005a3929190620005c8565b509160200191906001019062000582565b5b509050620005c491906200073d565b5090565b828054600181600116156101000203166002900490600052602060002090601f016020900481019282601f106200060b57805160ff19168380011785556200063c565b828001600101855582156200063c579182015b828111156200063b5782518255916020019190600101906200061e565b5b5090506200064b91906200076e565b5090565b828054828255906000526020600020908101928215620006a3579160200282015b82811115620006a257825182908051906020019062000691929190620005c8565b509160200191906001019062000670565b5b509050620006b291906200073d565b5090565b828054600181600116156101000203166002900490600052602060002090601f016020900481019282601f10620006f957805160ff19168380011785556200072a565b828001600101855582156200072a579182015b82811115620007295782518255916020019190600101906200070c565b5b5090506200073991906200076e565b5090565b6200076b91905b808211156200076757600081816200075d919062000796565b5060010162000744565b5090565b90565b6200079391905b808211156200078f57600081600090555060010162000775565b5090565b90565b50805460018160011615610100020316600290046000825580601f10620007be5750620007df565b601f016020900490600052602060002090810190620007de91906200076e565b5b50565b6000620007ef8262000969565b808452602084019350836020820285016200080a856200095c565b60005b848110156200084957838303885262000828838351620008a7565b925062000835826200098a565b91506020880197506001810190506200080d565b508196508694505050505092915050565b6200086581620009a1565b82525050565b600062000878826200097f565b8084526200088e816020860160208601620009b5565b6200089981620009eb565b602085010191505092915050565b6000620008b48262000974565b808452620008ca816020860160208601620009b5565b620008d581620009eb565b602085010191505092915050565b600060a0820190508181036000830152620008ff81886200086b565b905081810360208301526200091581876200086b565b90506200092660408301866200085a565b81810360608301526200093a81856200086b565b90508181036080830152620009508184620007e2565b90509695505050505050565b6000602082019050919050565b600081519050919050565b600081519050919050565b600081519050919050565b6000602082019050919050565b6000819050919050565b6000620009ae8262000997565b9050919050565b60005b83811015620009d5578082015181840152602081019050620009b8565b83811115620009e5576000848401525b50505050565b6000601f19601f8301169050919050565b61319f8062000a0c6000396000f3fe6080604052600436106100fc576000357c0100000000000000000000000000000000000000000000000000000000900463ffffffff16806305439898146101015780630efe6a8b1461014357806327e235e3146101805780633833b130146101bd57806348112c6f146102005780634abfa1631461022b5780638121f54d1461026d57806391329493146102965780639ff534dc146102c1578063ab46565e146102ec578063b5c5f67214610308578063c984ae0414610345578063d0dcd0bb14610382578063e51cea7e146103bf578063f12d85e5146103ea578063f55b6cbf14610413578063fb709d2e14610450578063fd67db8114610493575b600080fd5b34801561010d57600080fd5b50610128600480360361012391908101906124e6565b6104d0565b60405161013a96959493929190612e88565b60405180910390f35b34801561014f57600080fd5b5061016a6004803603610165919081019061250f565b6105d1565b6040516101779190612de9565b60405180910390f35b34801561018c57600080fd5b506101a760048036036101a291908101906124e6565b610664565b6040516101b49190612de9565b60405180910390f35b3480156101c957600080fd5b506101e460048036036101df91908101906124e6565b61067c565b6040516101f79796959493929190612e04565b60405180910390f35b34801561020c57600080fd5b506102156108a6565b6040516102229190612cd2565b60405180910390f35b34801561023757600080fd5b50610252600480360361024d91908101906125f5565b610c4a565b60405161026496959493929190612e88565b60405180910390f35b34801561027957600080fd5b50610294600480360361028f919081019061261e565b610d5a565b005b3480156102a257600080fd5b506102ab6110ae565b6040516102b89190612de9565b60405180910390f35b3480156102cd57600080fd5b506102d66110b4565b6040516102e39190612de9565b60405180910390f35b61030660048036036103019190810190612685565b6110ba565b005b34801561031457600080fd5b5061032f600480360361032a919081019061250f565b61115b565b60405161033c9190612de9565b60405180910390f35b34801561035157600080fd5b5061036c600480360361036791908101906125f5565b611253565b6040516103799190612de9565b60405180910390f35b34801561038e57600080fd5b506103a960048036036103a491908101906125f5565b61127d565b6040516103b69190612de9565b60405180910390f35b3480156103cb57600080fd5b506103d46112a7565b6040516103e19190612cf4565b60405180910390f35b3480156103f657600080fd5b50610411600480360361040c919081019061255e565b611521565b005b34801561041f57600080fd5b5061043a600480360361043591908101906125f5565b611942565b6040516104479190612dc7565b60405180910390f35b34801561045c57600080fd5b50610477600480360361047291908101906125f5565b611b94565b60405161048a9796959493929190612e04565b60405180910390f35b34801561049f57600080fd5b506104ba60048036036104b591908101906125f5565b611dcd565b6040516104c79190612da5565b60405180910390f35b60086020528060005260406000206000915090508060000154908060010160009054906101000a900473ffffffffffffffffffffffffffffffffffffffff1690806002018054600181600116156101000203166002900480601f0160208091040260200160405190810160405280929190818152602001828054600181600116156101000203166002900480156105a85780601f1061057d576101008083540402835291602001916105a8565b820191906000526020600020905b81548152906001019060200180831161058b57829003601f168201915b5050505050908060030154908060050160009054906101000a900460ff16908060060154905086565b6000826005838154811015156105e357fe5b9060005260206000209060080201600701600082825401925050819055507f14558f60a55f03caac2b3dabdda0b51b20b0e22ce09a2c28cd1dc18e873578e88484604051610632929190612ca9565b60405180910390a160058281548110151561064957fe5b90600052602060002090600802016007015490509392505050565b60066020528060005260406000206000915090505481565b60076020528060005260406000206000915090508060000154908060010160009054906101000a900473ffffffffffffffffffffffffffffffffffffffff1690806002018054600181600116156101000203166002900480601f0160208091040260200160405190810160405280929190818152602001828054600181600116156101000203166002900480156107545780601f1061072957610100808354040283529160200191610754565b820191906000526020600020905b81548152906001019060200180831161073757829003601f168201915b505050505090806003018054600181600116156101000203166002900480601f0160208091040260200160405190810160405280929190818152602001828054600181600116156101000203166002900480156107f25780601f106107c7576101008083540402835291602001916107f2565b820191906000526020600020905b8154815290600101906020018083116107d557829003601f168201915b505050505090806004015490806005018054600181600116156101000203166002900480601f0160208091040260200160405190810160405280929190818152602001828054600181600116156101000203166002900480156108965780601f1061086b57610100808354040283529160200191610896565b820191906000526020600020905b81548152906001019060200180831161087957829003601f168201915b5050505050908060070154905087565b60606005805480602002602001604051908101604052809291908181526020016000905b82821015610c4157838290600052602060002090600802016101006040519081016040529081600082015481526020016001820160009054906101000a900473ffffffffffffffffffffffffffffffffffffffff1673ffffffffffffffffffffffffffffffffffffffff1673ffffffffffffffffffffffffffffffffffffffff168152602001600282018054600181600116156101000203166002900480601f0160208091040260200160405190810160405280929190818152602001828054600181600116156101000203166002900480156109e85780601f106109bd576101008083540402835291602001916109e8565b820191906000526020600020905b8154815290600101906020018083116109cb57829003601f168201915b50505050508152602001600382018054600181600116156101000203166002900480601f016020809104026020016040519081016040528092919081815260200182805460018160011615610100020316600290048015610a8a5780601f10610a5f57610100808354040283529160200191610a8a565b820191906000526020600020905b815481529060010190602001808311610a6d57829003601f168201915b5050505050815260200160048201548152602001600582018054600181600116156101000203166002900480601f016020809104026020016040519081016040528092919081815260200182805460018160011615610100020316600290048015610b365780601f10610b0b57610100808354040283529160200191610b36565b820191906000526020600020905b815481529060010190602001808311610b1957829003601f168201915b5050505050815260200160068201805480602002602001604051908101604052809291908181526020016000905b82821015610c20578382906000526020600020018054600181600116156101000203166002900480601f016020809104026020016040519081016040528092919081815260200182805460018160011615610100020316600290048015610c0c5780601f10610be157610100808354040283529160200191610c0c565b820191906000526020600020905b815481529060010190602001808311610bef57829003601f168201915b505050505081526020019060010190610b64565b505050508152602001600782015481525050815260200190600101906108ca565b50505050905090565b600381815481101515610c5957fe5b90600052602060002090600702016000915090508060000154908060010160009054906101000a900473ffffffffffffffffffffffffffffffffffffffff1690806002018054600181600116156101000203166002900480601f016020809104026020016040519081016040528092919081815260200182805460018160011615610100020316600290048015610d315780601f10610d0657610100808354040283529160200191610d31565b820191906000526020600020905b815481529060010190602001808311610d1457829003601f168201915b5050505050908060030154908060050160009054906101000a900460ff16908060060154905086565b6001600081548092919060010191905055506060600a604051908082528060200260200182016040528015610da357816020015b6060815260200190600190039081610d8e5790505b509050600360e06040519081016040528060015481526020013373ffffffffffffffffffffffffffffffffffffffff1681526020018581526020018481526020018381526020016001151581526020016064815250908060018154018082558091505090600182039060005260206000209060070201600090919290919091506000820151816000015560208201518160010160006101000a81548173ffffffffffffffffffffffffffffffffffffffff021916908373ffffffffffffffffffffffffffffffffffffffff1602179055506040820151816002019080519060200190610e90929190612149565b50606082015181600301556080820151816004019080519060200190610eb79291906121c9565b5060a08201518160050160006101000a81548160ff02191690831515021790555060c08201518160060155505050600154600860003373ffffffffffffffffffffffffffffffffffffffff1673ffffffffffffffffffffffffffffffffffffffff1681526020019081526020016000206000018190555082600860003373ffffffffffffffffffffffffffffffffffffffff1673ffffffffffffffffffffffffffffffffffffffff1681526020019081526020016000206002019080519060200190610f84929190612229565b5081600860003373ffffffffffffffffffffffffffffffffffffffff1673ffffffffffffffffffffffffffffffffffffffff1681526020019081526020016000206003018190555080600860003373ffffffffffffffffffffffffffffffffffffffff1673ffffffffffffffffffffffffffffffffffffffff16815260200190815260200160002060040190805190602001906110229291906122a9565b506064600660003373ffffffffffffffffffffffffffffffffffffffff1673ffffffffffffffffffffffffffffffffffffffff168152602001908152602001600020819055507fe85b4f33503fb0397969144ea67288be9c0cce3f929e5f1aa4465a8e6e5118688484848460016040516110a0959493929190612ef0565b60405180910390a150505050565b60005481565b60015481565b6110c583828661115b565b508173ffffffffffffffffffffffffffffffffffffffff166108fc349081150290604051600060405180830381858888f1935050505015801561110c573d6000803e3d6000fd5b506111188282876105d1565b507f8a343dbdf7f5b6bc3f4078205c4f074c9645682b77d3322dd4084cbc0f943bab83838360405161114c93929190612c72565b60405180910390a15050505050565b600060038281548110151561116c57fe5b90600052602060002090600702016006015483111515156111c2576040517f08c379a00000000000000000000000000000000000000000000000000000000081526004016111b990612d85565b60405180910390fd5b826003838154811015156111d257fe5b9060005260206000209060070201600601600082825403925050819055507f1645bc385806bd472276f1f751ecfe0ee20d0ffd7d8ee85761562bdb01e54e6a8484604051611221929190612ca9565b60405180910390a160038281548110151561123857fe5b90600052602060002090600702016006015490509392505050565b600060058281548110151561126457fe5b9060005260206000209060080201600701549050919050565b600060038281548110151561128e57fe5b9060005260206000209060070201600601549050919050565b60606003805480602002602001604051908101604052809291908181526020016000905b82821015611518578382906000526020600020906007020160e06040519081016040529081600082015481526020016001820160009054906101000a900473ffffffffffffffffffffffffffffffffffffffff1673ffffffffffffffffffffffffffffffffffffffff1673ffffffffffffffffffffffffffffffffffffffff168152602001600282018054600181600116156101000203166002900480601f0160208091040260200160405190810160405280929190818152602001828054600181600116156101000203166002900480156113e85780601f106113bd576101008083540402835291602001916113e8565b820191906000526020600020905b8154815290600101906020018083116113cb57829003601f168201915b505050505081526020016003820154815260200160048201805480602002602001604051908101604052809291908181526020016000905b828210156114dc578382906000526020600020018054600181600116156101000203166002900480601f0160208091040260200160405190810160405280929190818152602001828054600181600116156101000203166002900480156114c85780601f1061149d576101008083540402835291602001916114c8565b820191906000526020600020905b8154815290600101906020018083116114ab57829003601f168201915b505050505081526020019060010190611420565b5050505081526020016005820160009054906101000a900460ff16151515158152602001600682015481525050815260200190600101906112cb565b50505050905090565b60008081548092919060010191905055506060600a60405190808252806020026020018201604052801561156957816020015b60608152602001906001900390816115545790505b50905060056101006040519081016040528060005481526020013373ffffffffffffffffffffffffffffffffffffffff168152602001868152602001848152602001600081526020018581526020018381526020016000815250908060018154018082558091505090600182039060005260206000209060080201600090919290919091506000820151816000015560208201518160010160006101000a81548173ffffffffffffffffffffffffffffffffffffffff021916908373ffffffffffffffffffffffffffffffffffffffff160217905550604082015181600201908051906020019061165b929190612149565b506060820151816003019080519060200190611678929190612149565b506080820151816004015560a082015181600501908051906020019061169f929190612149565b5060c08201518160060190805190602001906116bc9291906121c9565b5060e08201518160070155505050600054600760003373ffffffffffffffffffffffffffffffffffffffff1673ffffffffffffffffffffffffffffffffffffffff1681526020019081526020016000206000018190555083600760003373ffffffffffffffffffffffffffffffffffffffff1673ffffffffffffffffffffffffffffffffffffffff1681526020019081526020016000206002019080519060200190611769929190612229565b5081600760003373ffffffffffffffffffffffffffffffffffffffff1673ffffffffffffffffffffffffffffffffffffffff16815260200190815260200160002060030190805190602001906117c0929190612229565b506000600760003373ffffffffffffffffffffffffffffffffffffffff1673ffffffffffffffffffffffffffffffffffffffff1681526020019081526020016000206004018190555082600760003373ffffffffffffffffffffffffffffffffffffffff1673ffffffffffffffffffffffffffffffffffffffff168152602001908152602001600020600501908051906020019061185f929190612229565b5080600760003373ffffffffffffffffffffffffffffffffffffffff1673ffffffffffffffffffffffffffffffffffffffff16815260200190815260200160002060060190805190602001906118b69291906122a9565b506000600660003373ffffffffffffffffffffffffffffffffffffffff1673ffffffffffffffffffffffffffffffffffffffff168152602001908152602001600020819055507f46b01024b7717ef5be171b6451aeef55b0385c01fc2e2dd4b11c883b06858c2d848460008585604051611934959493929190612d16565b60405180910390a150505050565b61194a612309565b60038281548110151561195957fe5b906000526020600020906007020160e06040519081016040529081600082015481526020016001820160009054906101000a900473ffffffffffffffffffffffffffffffffffffffff1673ffffffffffffffffffffffffffffffffffffffff1673ffffffffffffffffffffffffffffffffffffffff168152602001600282018054600181600116156101000203166002900480601f016020809104026020016040519081016040528092919081815260200182805460018160011615610100020316600290048015611a6c5780601f10611a4157610100808354040283529160200191611a6c565b820191906000526020600020905b815481529060010190602001808311611a4f57829003601f168201915b505050505081526020016003820154815260200160048201805480602002602001604051908101604052809291908181526020016000905b82821015611b60578382906000526020600020018054600181600116156101000203166002900480601f016020809104026020016040519081016040528092919081815260200182805460018160011615610100020316600290048015611b4c5780601f10611b2157610100808354040283529160200191611b4c565b820191906000526020600020905b815481529060010190602001808311611b2f57829003601f168201915b505050505081526020019060010190611aa4565b5050505081526020016005820160009054906101000a900460ff161515151581526020016006820154815250509050919050565b600581815481101515611ba357fe5b90600052602060002090600802016000915090508060000154908060010160009054906101000a900473ffffffffffffffffffffffffffffffffffffffff1690806002018054600181600116156101000203166002900480601f016020809104026020016040519081016040528092919081815260200182805460018160011615610100020316600290048015611c7b5780601f10611c5057610100808354040283529160200191611c7b565b820191906000526020600020905b815481529060010190602001808311611c5e57829003601f168201915b505050505090806003018054600181600116156101000203166002900480601f016020809104026020016040519081016040528092919081815260200182805460018160011615610100020316600290048015611d195780601f10611cee57610100808354040283529160200191611d19565b820191906000526020600020905b815481529060010190602001808311611cfc57829003601f168201915b505050505090806004015490806005018054600181600116156101000203166002900480601f016020809104026020016040519081016040528092919081815260200182805460018160011615610100020316600290048015611dbd5780601f10611d9257610100808354040283529160200191611dbd565b820191906000526020600020905b815481529060010190602001808311611da057829003601f168201915b5050505050908060070154905087565b611dd561235f565b600582815481101515611de457fe5b90600052602060002090600802016101006040519081016040529081600082015481526020016001820160009054906101000a900473ffffffffffffffffffffffffffffffffffffffff1673ffffffffffffffffffffffffffffffffffffffff1673ffffffffffffffffffffffffffffffffffffffff168152602001600282018054600181600116156101000203166002900480601f016020809104026020016040519081016040528092919081815260200182805460018160011615610100020316600290048015611ef85780601f10611ecd57610100808354040283529160200191611ef8565b820191906000526020600020905b815481529060010190602001808311611edb57829003601f168201915b50505050508152602001600382018054600181600116156101000203166002900480601f016020809104026020016040519081016040528092919081815260200182805460018160011615610100020316600290048015611f9a5780601f10611f6f57610100808354040283529160200191611f9a565b820191906000526020600020905b815481529060010190602001808311611f7d57829003601f168201915b5050505050815260200160048201548152602001600582018054600181600116156101000203166002900480601f0160208091040260200160405190810160405280929190818152602001828054600181600116156101000203166002900480156120465780601f1061201b57610100808354040283529160200191612046565b820191906000526020600020905b81548152906001019060200180831161202957829003601f168201915b5050505050815260200160068201805480602002602001604051908101604052809291908181526020016000905b82821015612130578382906000526020600020018054600181600116156101000203166002900480601f01602080910402602001604051908101604052809291908181526020018280546001816001161561010002031660029004801561211c5780601f106120f15761010080835404028352916020019161211c565b820191906000526020600020905b8154815290600101906020018083116120ff57829003601f168201915b505050505081526020019060010190612074565b5050505081526020016007820154815250509050919050565b828054600181600116156101000203166002900490600052602060002090601f016020900481019282601f1061218a57805160ff19168380011785556121b8565b828001600101855582156121b8579182015b828111156121b757825182559160200191906001019061219c565b5b5090506121c591906123bb565b5090565b828054828255906000526020600020908101928215612218579160200282015b82811115612217578251829080519060200190612207929190612149565b50916020019190600101906121e9565b5b50905061222591906123e0565b5090565b828054600181600116156101000203166002900490600052602060002090601f016020900481019282601f1061226a57805160ff1916838001178555612298565b82800160010185558215612298579182015b8281111561229757825182559160200191906001019061227c565b5b5090506122a591906123bb565b5090565b8280548282559060005260206000209081019282156122f8579160200282015b828111156122f75782518290805190602001906122e7929190612149565b50916020019190600101906122c9565b5b50905061230591906123e0565b5090565b60e06040519081016040528060008152602001600073ffffffffffffffffffffffffffffffffffffffff168152602001606081526020016000815260200160608152602001600015158152602001600081525090565b6101006040519081016040528060008152602001600073ffffffffffffffffffffffffffffffffffffffff1681526020016060815260200160608152602001600081526020016060815260200160608152602001600081525090565b6123dd91905b808211156123d95760008160009055506001016123c1565b5090565b90565b61240991905b8082111561240557600081816123fc919061240c565b506001016123e6565b5090565b90565b50805460018160011615610100020316600290046000825580601f106124325750612451565b601f01602090049060005260206000209081019061245091906123bb565b5b50565b6000612460823561309c565b905092915050565b600061247482356130ae565b905092915050565b600082601f830112151561248f57600080fd5b81356124a261249d82612f7e565b612f51565b915080825260208301602083018583830111156124be57600080fd5b6124c9838284613112565b50505092915050565b60006124de82356130c0565b905092915050565b6000602082840312156124f857600080fd5b600061250684828501612454565b91505092915050565b60008060006060848603121561252457600080fd5b600061253286828701612468565b9350506020612543868287016124d2565b9250506040612554868287016124d2565b9150509250925092565b60008060006060848603121561257357600080fd5b600084013567ffffffffffffffff81111561258d57600080fd5b6125998682870161247c565b935050602084013567ffffffffffffffff8111156125b657600080fd5b6125c28682870161247c565b925050604084013567ffffffffffffffff8111156125df57600080fd5b6125eb8682870161247c565b9150509250925092565b60006020828403121561260757600080fd5b6000612615848285016124d2565b91505092915050565b60008060006060848603121561263357600080fd5b6000612641868287016124d2565b935050602084013567ffffffffffffffff81111561265e57600080fd5b61266a8682870161247c565b925050604061267b868287016124d2565b9150509250925092565b600080600080600060a0868803121561269d57600080fd5b60006126ab888289016124d2565b95505060206126bc888289016124d2565b94505060406126cd88828901612468565b93505060606126de88828901612468565b92505060806126ef888289016124d2565b9150509295509295909350565b612705816130ca565b82525050565b61271481613054565b82525050565b600061272582612fe9565b8084526020840193508360208202850161273e85612fb7565b60005b84811015612777578383038852612759838351612926565b92506127648261302d565b9150602088019750600181019050612741565b508196508694505050505092915050565b600061279382612fde565b808452602084019350836020820285016127ac85612faa565b60005b848110156127e55783830388526127c7838351612926565b92506127d282613020565b91506020880197506001810190506127af565b508196508694505050505092915050565b600061280182612ff4565b8084526020840193508360208202850161281a85612fc4565b60005b84811015612853578383038852612835838351612a58565b92506128408261303a565b915060208801975060018101905061281d565b508196508694505050505092915050565b600061286f82612fff565b8084526020840193508360208202850161288885612fd1565b60005b848110156128c15783830388526128a3838351612bc0565b92506128ae82613047565b915060208801975060018101905061288b565b508196508694505050505092915050565b6128db81613066565b82525050565b6128ea816130dc565b82525050565b60006128fb82613015565b80845261290f816020860160208601613121565b61291881613154565b602085010191505092915050565b60006129318261300a565b808452612945816020860160208601613121565b61294e81613154565b602085010191505092915050565b6000600c82527f49276d20616e206572726f7200000000000000000000000000000000000000006020830152604082019050919050565b6000610100830160008301516129ac6000860182612c63565b5060208301516129bf602086018261270b565b50604083015184820360408601526129d78282612926565b915050606083015184820360608601526129f18282612926565b9150506080830151612a066080860182612c63565b5060a083015184820360a0860152612a1e8282612926565b91505060c083015184820360c0860152612a388282612788565b91505060e0830151612a4d60e0860182612c63565b508091505092915050565b600061010083016000830151612a716000860182612c63565b506020830151612a84602086018261270b565b5060408301518482036040860152612a9c8282612926565b91505060608301518482036060860152612ab68282612926565b9150506080830151612acb6080860182612c63565b5060a083015184820360a0860152612ae38282612926565b91505060c083015184820360c0860152612afd8282612788565b91505060e0830151612b1260e0860182612c63565b508091505092915050565b600060e083016000830151612b356000860182612c63565b506020830151612b48602086018261270b565b5060408301518482036040860152612b608282612926565b9150506060830151612b756060860182612c63565b5060808301518482036080860152612b8d8282612788565b91505060a0830151612ba260a08601826128d2565b5060c0830151612bb560c0860182612c63565b508091505092915050565b600060e083016000830151612bd86000860182612c63565b506020830151612beb602086018261270b565b5060408301518482036040860152612c038282612926565b9150506060830151612c186060860182612c63565b5060808301518482036080860152612c308282612788565b91505060a0830151612c4560a08601826128d2565b5060c0830151612c5860c0860182612c63565b508091505092915050565b612c6c81613092565b82525050565b6000606082019050612c8760008301866126fc565b612c9460208301856126fc565b612ca16040830184612c63565b949350505050565b6000604082019050612cbe60008301856126fc565b612ccb6020830184612c63565b9392505050565b60006020820190508181036000830152612cec81846127f6565b905092915050565b60006020820190508181036000830152612d0e8184612864565b905092915050565b600060a0820190508181036000830152612d3081886128f0565b90508181036020830152612d4481876128f0565b9050612d5360408301866128e1565b8181036060830152612d6581856128f0565b90508181036080830152612d79818461271a565b90509695505050505050565b60006020820190508181036000830152612d9e8161295c565b9050919050565b60006020820190508181036000830152612dbf8184612993565b905092915050565b60006020820190508181036000830152612de18184612b1d565b905092915050565b6000602082019050612dfe6000830184612c63565b92915050565b600060e082019050612e19600083018a612c63565b612e26602083018961270b565b8181036040830152612e388188612926565b90508181036060830152612e4c8187612926565b9050612e5b6080830186612c63565b81810360a0830152612e6d8185612926565b9050612e7c60c0830184612c63565b98975050505050505050565b600060c082019050612e9d6000830189612c63565b612eaa602083018861270b565b8181036040830152612ebc8187612926565b9050612ecb6060830186612c63565b612ed860808301856128d2565b612ee560a0830184612c63565b979650505050505050565b600060a082019050612f056000830188612c63565b8181036020830152612f1781876128f0565b9050612f266040830186612c63565b8181036060830152612f38818561271a565b9050612f4760808301846128d2565b9695505050505050565b6000604051905081810181811067ffffffffffffffff82111715612f7457600080fd5b8060405250919050565b600067ffffffffffffffff821115612f9557600080fd5b601f19601f8301169050602081019050919050565b6000602082019050919050565b6000602082019050919050565b6000602082019050919050565b6000602082019050919050565b600081519050919050565b600081519050919050565b600081519050919050565b600081519050919050565b600081519050919050565b600081519050919050565b6000602082019050919050565b6000602082019050919050565b6000602082019050919050565b6000602082019050919050565b600061305f82613072565b9050919050565b60008115159050919050565b600073ffffffffffffffffffffffffffffffffffffffff82169050919050565b6000819050919050565b60006130a782613072565b9050919050565b60006130b982613072565b9050919050565b6000819050919050565b60006130d5826130ee565b9050919050565b60006130e782613092565b9050919050565b60006130f982613100565b9050919050565b600061310b82613072565b9050919050565b82818337600083830152505050565b60005b8381101561313f578082015181840152602081019050613124565b8381111561314e576000848401525b50505050565b6000601f19601f830116905091905056fea265627a7a72305820d1ec982a4234dca03e8b4711875ebe35bf04f6abaac3e8322cbbca52c7f4a1716c6578706572696d656e74616cf50037",
  "source": "pragma solidity <=0.8.11;\r\npragma experimental ABIEncoderV2;\r\ncontract Donation{\r\n    uint public charityCount=0;\r\n    uint public donorsCount=0;\r\n    address payable[] charityAddresses;\r\n    DonorsInfo[] public donors;\r\n    string[] newHistory=new string[](10);\r\n    Charity[] public charities;\r\n    mapping (address=>uint) public balances;\r\n    mapping (address=> Charity) public charitym;\r\n    mapping (address=> DonorsInfo) public donorm;\r\n    \r\n    struct Charity{\r\n        uint id;\r\n        address charityaddr;\r\n        string name;\r\n        string date;\r\n        uint amountReceived;\r\n        string description;\r\n        string[] history;\r\n        uint balance;\r\n    }\r\n\r\n    struct DonorsInfo{\r\n        uint id;\r\n        address donoraddr;\r\n        string name;\r\n        uint amountDonated;\r\n        string[] history;\r\n        bool transfered;\r\n        uint balance;\r\n\r\n    }\r\n    constructor() public{\r\n        addCharity(\"name\", \"dec\",\"amtn\");\r\n    }\r\n\r\n    event getCharitiesEv();\r\n    event getCharityEv(uint id);\r\n    event addCharityEv(string name, string description,  uint amountReceived, string date, string[] history);\r\n    event getDonorsEv();\r\n    event getDonorEv(uint id);\r\n    event addDonorEv(uint charity_id, string name, uint amountDonated, string[] history, bool transfered);\r\n    event donateEv (address fromAddress,  address toAddress, uint amountDonated);\r\n    event depositMade(address charityaddr, uint amountReceived);\r\n    event withdrawalMade(address donoraddr, uint amountDonated);\r\n\r\n    function addCharity(string memory name,string memory description, string memory date) public {\r\n        charityCount++;\r\n        string[] memory history=new string[](10);\r\n        charities.push(Charity(charityCount,msg.sender,name,date,0,description,history,0));\r\n        // charitym[msg.sender]=Charity(charityCount,msg.sender,name,date,0,description,history);\r\n        charitym[msg.sender].id = charityCount;\r\n        charitym[msg.sender].name = name;\r\n        charitym[msg.sender].date = date;\r\n        charitym[msg.sender].amountReceived = 0;\r\n        charitym[msg.sender].description = description;\r\n        charitym[msg.sender].history = history;\r\n        balances[msg.sender]=0;\r\n\r\n        emit addCharityEv(name,description,0,date,history);\r\n    }\r\n    function getCharity(uint id) public view returns (Charity memory) {\r\n        return charities[id];\r\n    }\r\n\r\n    function getCharities() public view returns (Charity[] memory) {\r\n        return charities;\r\n    }\r\n\r\n    function getCharityBalance(uint charity_id) public view returns (uint) {\r\n        return charities[charity_id].balance;\r\n    }\r\n\r\n    function getDonorBalance(uint donor_id) public view returns (uint) {\r\n        return donors[donor_id].balance;\r\n    }\r\n\r\n\r\n    function getdonors() public view returns (DonorsInfo[] memory){\r\n        return donors;\r\n    }\r\n\r\n    function getdonor(uint id) public view returns (DonorsInfo memory){\r\n        return donors[id];\r\n    }\r\n\r\n    function addDonors(uint charity_id,  string memory donorName, uint amountDonated) public {\r\n        donorsCount++;\r\n        string[] memory _history = new string[](10);\r\n        donors.push(DonorsInfo(donorsCount, msg.sender, donorName,amountDonated,_history, true,100));\r\n        donorm[msg.sender].id= donorsCount;\r\n        donorm[msg.sender].name = donorName;\r\n        donorm[msg.sender].amountDonated = amountDonated;\r\n        donorm[msg.sender].history = _history;\r\n        balances[msg.sender]=100;\r\n        // charities[charity_id].history.push(donorName);\r\n        \r\n        emit addDonorEv(charity_id, donorName,  amountDonated, _history,  true);\r\n        \r\n    }\r\n\r\n    function donate(uint charity_id, uint donor_id, address payable fromAddress, address payable toAddress,uint amountDonated) public payable{\r\n        // addDonors(charity_id, donorName, amountDonated);\r\n        withdraw(fromAddress, amountDonated,donor_id);\r\n        toAddress.transfer(msg.value);\r\n        deposit(toAddress, amountDonated,charity_id);\r\n        emit donateEv(fromAddress,  toAddress, amountDonated);\r\n        // uint[] memory amounts = new uint[](2);\r\n        // amounts[0]=withdrawalAmount;\r\n        // amounts[1]=depositedAmount;\r\n        \r\n        // return charities[charity_id].balance;\r\n    }\r\n     function deposit(address payable charityaddr, uint amountReceived, uint charity_id) public returns (uint){\r\n        charities[charity_id].balance += amountReceived;\r\n        // balances[charityaddr] += amountReceived;\r\n        emit depositMade(charityaddr, amountReceived);\r\n        return charities[charity_id].balance;\r\n    }\r\n    \r\n    function withdraw(address payable donoraddr, uint amountDonated, uint donor_id) public returns (uint){\r\n        require(amountDonated <= donors[donor_id].balance,\"I'm an error\");\r\n        donors[donor_id].balance -= amountDonated;\r\n        // balances[donoraddr] -= amountDonated;\r\n        // donoraddr.transfer(amountDonated);\r\n        emit withdrawalMade(donoraddr,amountDonated);\r\n        return donors[donor_id].balance;\r\n    }\r\n    \r\n    //  addCharity(\"name\", \"fesd\", \"date\");\r\n}",
  "sourcePath": "C:/Users/seams/Desktop/Practices/BlockchainPractices/Donation_System/contracts/Donation.sol",
  "compiler": {
    "name": "solc",
    "version": "0.5.0+commit.1d4f565a.Emscripten.clang"
  },
  "schemaVersion": "3.0.1",
  "updatedAt": "2022-01-14T20:07:19.644Z",
  "devdoc": {
    "methods": {}
  },
  "userdoc": {
    "methods": {}
  }
}